:020000040800F2
:100000000000022015220008AD210008AF210008E1
:10001000B1210008B3210008B5210008000000004C
:10002000000000000000000000000000B7210008F0
:10003000B921000800000000BB210008BD21000814
:100040006522000865220008652200086522000874
:100050006522000865220008652200086522000864
:100060006522000865220008652200086522000854
:100070006522000865220008652200086522000844
:100080006522000865220008652200086522000834
:100090006522000865220008652200086522000824
:1000A0006522000865220008652200086522000814
:1000B0006522000865220008652200086522000804
:1000C00065220008652200086522000865220008F4
:1000D00065220008652200086522000865220008E4
:1000E00065220008652200086522000865220008D4
:1000F00065220008652200086522000865220008C4
:1001000065220008652200086522000865220008B3
:1001100065220008652200086522000865220008A3
:100120006522000865220008652200086522000893
:100130006522000865220008652200086522000883
:100140006522000865220008652200086522000873
:100150006522000865220008652200086522000863
:100160006522000865220008652200086522000853
:1001700065220008652200086522000800000000D2
:08018000652200086522000859
:1001880010B5054C237833B9044B13B10448AFF3C9
:1001980000800123237010BD7400002000000000BF
:1001A8000C2C000808B5034B1BB103490348AFF3F7
:1001B800008008BD00000000780000200C2C00081A
:1001C80081F0004102E000BF83F0004330B54FEA00
:1001D80041044FEA430594EA050F08BF90EA020F6D
:1001E8001FBF54EA000C55EA020C7FEA645C7FEA00
:1001F800655C00F0E2804FEA5454D4EB5555B8BF23
:100208006D420CDD2C4480EA020281EA030382EA93
:10021800000083EA010180EA020281EA0303362D25
:1002280088BF30BD11F0004F4FEA01314FF4801CF8
:100238004CEA113102D0404261EB410113F0004F0A
:100248004FEA03334CEA133302D0524263EB4303C1
:1002580094EA050F00F0A780A4F10104D5F1200E5F
:100268000DDB02FA0EFC22FA05F2801841F10001BA
:1002780003FA0EF2801843FA05F359410EE0A5F18E
:1002880020050EF1200E012A03FA0EFC28BF4CF0BF
:10029800020C43FA05F3C01851EBE37101F0004575
:1002A80007D54FF0000EDCF1000C7EEB00006EEB82
:1002B8000101B1F5801F1BD3B1F5001F0CD349080C
:1002C8005FEA30004FEA3C0C04F101044FEA445263
:1002D80012F5800F80F09A80BCF1004F08BF5FEAEA
:1002E800500C50F1000041EB045141EA050130BDCA
:1002F8005FEA4C0C404141EB010111F4801FA4F16D
:100308000104E9D191F0000F04BF01460020B1FAC1
:1003180081F308BF2033A3F10B03B3F120020CDAF9
:100328000C3208DD02F1140CC2F10C0201FA0CF0D7
:1003380021FA02F10CE002F11402D8BFC2F1200C3C
:1003480001FA02F120FA0CFCDCBF41EA0C019040F2
:10035800E41AA2BF01EB0451294330BD6FEA04043B
:100368001F3C1CDA0C340EDC04F11404C4F1200226
:1003780020FA04F001FA02F340EA030021FA04F338
:1003880045EA030130BDC4F10C04C4F1200220FA8F
:1003980002F001FA04F340EA0300294630BD21FACD
:1003A80004F0294630BD94F0000F83F4801306BF93
:1003B80081F480110134013D4EE77FEA645C18BF87
:1003C8007FEA655C29D094EA050F08BF90EA020F1E
:1003D80005D054EA000C04BF1946104630BD91EA16
:1003E800030F1EBF0021002030BD5FEA545C05D119
:1003F8004000494128BF41F0004130BD14F5800458
:100408003CBF01F5801130BD01F0004545F0FE41CB
:1004180041F470014FF0000030BD7FEA645C1ABF00
:10042800194610467FEA655C1CBF0B46024650EA37
:10043800013406BF52EA033591EA030F41F4002163
:1004480030BD00BF90F0000F04BF0021704730B5E9
:100458004FF4806404F132044FF000054FF00001BE
:1004680050E700BF90F0000F04BF0021704730B57F
:100478004FF4806404F1320410F0004548BF404254
:100488004FF000013EE700BF42004FEAE2014FEAA9
:1004980031014FEA02701FBF12F07F4393F07F4F84
:1004A80081F06051704732F07F4208BF704793F087
:1004B8007F4F04BF41F40021704730B54FF460749A
:1004C80001F0004521F000411CE700BF50EA01029D
:1004D80008BF704730B54FF000050AE050EA010246
:1004E80008BF704730B511F0004502D5404261EBB6
:1004F80041014FF4806404F132045FEA915C3FF4F7
:10050800D8AE4FF003025FEADC0C18BF03325FEA93
:10051800DC0C18BF033202EBDC02C2F1200300FA44
:1005280003FC20FA02F001FA03FE40EA0E0021FA69
:1005380002F11444BDE600BF70B54FF0FF0C4CF457
:10054800E06C1CEA11541DBF1CEA135594EA0C0F09
:1005580095EA0C0F00F0DEF82C4481EA030621EA44
:100568004C5123EA4C5350EA013518BF52EA03357F
:1005780041F4801143F4801338D0A0FB02CE4FF031
:100588000005E1FB02E506F00042E0FB03E54FF061
:100598000006E1FB03569CF0000F18BF4EF0010E59
:1005A800A4F1FF04B6F5007F64F5407404D25FEA55
:1005B8004E0E6D4146EB060642EAC62141EA555108
:1005C8004FEAC52040EA5E504FEACE2EB4F1FD0C4A
:1005D80088BFBCF5E06F1ED8BEF1004F08BF5FEAC8
:1005E800500E50F1000041EB045170BD06F000467A
:1005F80046EA010140EA020081EA0301B4EB5C0427
:10060800C2BFD4EB0C0541EA045170BD41F480111E
:100618004FF0000E013C00F3AB8014F1360FDEBF43
:10062800002001F0004170BDC4F10004203C35DA1F
:100638000C341BDC04F11404C4F1200500FA05F3A2
:1006480020FA04F001FA05F240EA020001F0004243
:1006580021F0004110EBD37021FA04F642EB0601B9
:100668005EEA430E08BF20EAD37070BDC4F10C04E3
:10067800C4F1200500FA04F320FA05F001FA04F2A7
:1006880040EA020001F0004110EBD37041F1000193
:100698005EEA430E08BF20EAD37070BDC4F120059E
:1006A80000FA05F24EEA020E20FA04F301FA05F206
:1006B80043EA020321FA04F001F0004121FA04F2AE
:1006C80020EA020000EBD3705EEA430E08BF20EA7E
:1006D800D37070BD94F0000F0FD101F000464000B8
:1006E80041EB010111F4801F08BF013CF7D041EA3A
:1006F800060195F0000F18BF704703F0004652003E
:1007080043EB030313F4801F08BF013DF7D043EA0E
:100718000603704794EA0C0F0CEA135518BF95EAC4
:100728000C0F0CD050EA410618BF52EA4306D1D14B
:1007380081EA030101F000414FF0000070BD50EA6A
:10074800410606BF1046194652EA430619D094EAF4
:100758000C0F02D150EA013613D195EA0C0F05D1DE
:1007680052EA03361CBF104619460AD181EA030132
:1007780001F0004141F0FE4141F470014FF00000EA
:1007880070BD41F0FE4141F4780170BD70B54FF085
:10079800FF0C4CF4E06C1CEA11541DBF1CEA135505
:1007A80094EA0C0F95EA0C0F00F0A7F8A4EB0504E7
:1007B80081EA030E52EA03354FEA013100F08880DE
:1007C8004FEA03334FF0805545EA131343EA1263A7
:1007D8004FEA022245EA111545EA10654FEA00265C
:1007E8000EF000419D4208BF964244F1FD0404F515
:1007F800407402D25B084FEA3202B61A65EB030571
:100808005B084FEA32024FF480104FF4002CB6EB2D
:10081800020E75EB030E22BFB61A754640EA0C00AD
:100828005B084FEA3202B6EB020E75EB030E22BFED
:10083800B61A754640EA5C005B084FEA3202B6EB2E
:10084800020E75EB030E22BFB61A754640EA9C00ED
:100858005B084FEA3202B6EB020E75EB030E22BFBD
:10086800B61A754640EADC0055EA060E18D04FEA7B
:10087800051545EA16754FEA06164FEAC30343EA1B
:1008880052734FEAC2025FEA1C1CC0D111F4801FE8
:100898000BD141EA00014FF000004FF0004CB6E7E1
:1008A80011F4801F04BF01430020B4F1FD0C88BF80
:1008B800BCF5E06F3FF6AFAEB5EB030C04BFB6EB8B
:1008C800020C5FEA500C50F1000041EB045170BD7E
:1008D8000EF0004E4EEA113114EB5C04C2BFD4EBAB
:1008E8000C0541EA045170BD41F480114FF0000E2F
:1008F800013C90E645EA060E8DE60CEA135594EAAB
:100908000C0F08BF95EA0C0F3FF43BAF94EA0C0FAD
:100918000AD150EA01347FF434AF95EA0C0F7FF422
:1009280025AF104619462CE795EA0C0F06D152EA76
:1009380003353FF4FDAE1046194622E750EA41065A
:1009480018BF52EA43067FF4C5AE50EA41047FF46B
:100958000DAF52EA43057FF4EBAE12E74FEA4102CE
:10096800B2F1E04324BFB3F5001CDCF1FE5C0DD905
:1009780001F0004C4FEAC0024CEA5070B2F1004F4F
:1009880040EB830008BF20F00100704711F0804F52
:1009980021D113F13872BCBF01F00040704741F417
:1009A80080114FEA5252C2F11802C2F1200C10FA1B
:1009B8000CF320FA02F018BF40F001004FEAC123FF
:1009C8004FEAD32303FA0CFC40EA0C0023FA02F3A3
:1009D8004FEA4303CCE77FEA625307D150EA013379
:1009E8001EBF4FF0FE4040F44000704701F0004049
:1009F80040F0FE4040F40000704700BF53B94AB9C8
:100A0800002908BF00281CBF4FF0FF314FF0FF300E
:100A180000F072B9ADF1080C6DE904CE00F006F8EB
:100A2800DDF804E0DDE9022304B070472DE9F04762
:100A3800089E04468846002B4BD18A42154667D942
:100A4800B2FA82F24AB1C2F1200701FA02F320FA9F
:100A580007F7954047EA030894404FEA154E230CE0
:100A6800B8FBFEF71FFA85FC0EFB178843EA08431C
:100A780007FB0CF1994209D9EB1807F1FF3080F018
:100A88001B81994240F21881023F2B445B1AA4B2A1
:100A9800B3FBFEF00EFB103344EA034400FB0CFCEE
:100AA800A44509D92C1900F1FF3380F00781A4452A
:100AB80040F2048102382C4440EA0740A4EB0C04BD
:100AC80000271EB1D4400023C6E900433946BDE8DB
:100AD800F0878B4209D9002E00F0EB800027C6E989
:100AE800000138463946BDE8F087B3FA83F7002F8E
:100AF80047D18B4202D3824200F2FA80841A61EB1A
:100B0800030301209846002EE0D0C6E90048DDE73F
:100B180002B9FFDEB2FA82F2002A40F08F80491B48
:100B28004FEA154E1FFA85F80127B1FBFEFC230C8E
:100B38000EFB1C1143EA014308FB0CF1994207D94B
:100B4800EB180CF1FF3002D2994200F2CD808446B6
:100B5800591AA3B2B1FBFEF00EFB101443EA044489
:100B680008FB00F8A04507D92C1900F1FF3302D281
:100B7800A04500F2B6801846A4EB080440EA0C40F1
:100B88009FE7C7F1200CBB4022FA0CFE4EEA030E89
:100B980001FA07F420FA0CF521FA0CF34FEA1E4883
:100BA8002543B3FBF8F92C0C08FB19331FFA8EFA0E
:100BB80044EA034309FB0AF49C4202FA07F200FAEA
:100BC80007F10BD91EEB030309F1FF3080F0878092
:100BD8009C4240F28480A9F1020973441B1BADB208
:100BE800B3FBF8F008FB103345EA034400FB0AFAAC
:100BF800A24508D91EEB040400F1FF336BD2A245CD
:100C080069D90238744440EA0940A0FB0289A4EB80
:100C18000A044C45C2464B4654D351D0002E69D0E5
:100C2800B1EB0A0564EB030404FA0CFCFD40FC403C
:100C38004CEA0505C6E90054002747E7C2F120033E
:100C480020FA03F7954001FA02F021FA03F34FEA7C
:100C5800154E3843010CB3FBFEF71FFA85F80EFB5F
:100C6800173341EA034107FB08F38B4204FA02F405
:100C780007D9691807F1FF3C2FD28B422DD9023FC3
:100C88002944CB1A81B2B3FBFEF00EFB103341EAC4
:100C9800034100FB08F38B4207D9691800F1FF3CB8
:100CA80017D28B4215D902382944C91A40EA074796
:100CB8003BE73746304609E70746E7E61846FBE6CE
:100CC8004145ABD2B8EB020A69EB0E020138134674
:100CD800A4E76046E9E7184695E76746D1E7814605
:100CE8007CE702382C4447E7ACF1020C2B442FE791
:100CF800384608E73746E9E6704700BF10B50446AE
:100D08000E4B18784FF47A73B3FBF0F30C4A106863
:100D1800B0FBF3F000F088F868B90F2C01D9012076
:100D28000AE0002221464FF0FF3000F049F8034B5B
:100D38005C60002000E0012010BD00BF0000002022
:100D48000C00002008B50B4B1A6842F400721A60B8
:100D58001A6842F480621A601A6842F480721A6053
:100D6800032000F01BF80020FFF7C8FF01F092F9FC
:100D7800002008BD003C0240034A1168034B1B7861
:100D88000B441360704700BF9C0000200000002047
:100D9800014B1868704700BF9C000020074AD368C1
:100DA80023F4E0631B041B0C000200F4E06018430A
:100DB80040F0BF6040F40030D060704700ED00E0C4
:100DC80030B4174BDB68C3F30223C3F10704042CC8
:100DD80028BF04241D1D062D18D9033B4FF0FF35ED
:100DE80005FA04F421EA0401994005FA03F322EA1A
:100DF8000303194300280BDB0901C9B200F1604065
:100E080000F5614080F8001330BC70470023E5E727
:100E180000F00F000901C9B2024B1954F4E700BFF2
:100E280000ED00E014ED00E00138B0F1807F0AD257
:100E3800064B5860064AF02182F82310002098607B
:100E480007221A6070470120704700BF10E000E0D9
:100E580000ED00E0042805D0054A136823F00403D8
:100E680013607047024A136843F004031360704725
:100E780010E000E0704708B5FFF7FCFF08BD000070
:100E880000230F2B00F2D780F0B482B039E007229C
:100E980000E00022B2403A430234674E46F824206C
:100EA800664A1468EA4302EA04064F6817F4803F6A
:100EB80001D045EA0406614C2660646802EA04062B
:100EC8004F6817F4003F01D045EA04065B4C6660A2
:100ED800A46802EA04064F6817F4801F01D045EAA7
:100EE8000406564CA660E46822404E6816F4001FBB
:100EF80001D045EA0402514CE26001330F2B00F2A5
:100F0800978001229A400C6804EA0205AA42F4D1AB
:100F18004C68022C01D0122C10D1DE08083650F88B
:100F280026C003F00704A7000F24BC402CEA040CD9
:100F38000C69BC4044EA0C0440F8264004685F0091
:100F48000326BE40F64306EA040C4C6804F003048A
:100F5800BC4044EA0C0404604C6804F1FF3CBCF15A
:100F6800010F03D9112C01D0122C10D1846806EA84
:100F7800040CCC68BC4044EA0C048460446824EA4D
:100F880002024C68C4F300149C4014434460C268D5
:100F980016408A68BA403243C2604A6812F0805FDD
:100FA800ABD000220192264A546C44F48044546425
:100FB800526C02F480420192019A9C08A61C1E4AB7
:100FC80052F8267003F0030296000F22B24027EA77
:100FD80002071C4A90423FF45CAF02F580629042DF
:100FE8001AD002F58062904218D002F580629042D1
:100FF80016D002F58062904214D002F580629042C9
:1010080012D002F58062904210D002F580629042C0
:101018003FF43DAF08223DE701223BE7022239E7D2
:10102800032237E7042235E7052233E7062231E7B2
:1010380002B0F0BC7047704700380140003C0140E6
:10104800003802400000024000230F2B00F2858088
:10105800F0B509E0072500E0002505FA02F2A242F2
:1010680062D001330F2B77D801229A4002EA010699
:10107800B242F6D105685F000324BC40E443254032
:1010880005604FEAD30C0CF1080C50F82CE003F083
:101098000705AD000F2707FA05F52EEA050540F804
:1010A8002C50856825408560456825EA0202426023
:1010B800C2681440C4604FEA930C0CF10204274A3A
:1010C80052F8244003F00302920097403C40244D1C
:1010D800A842C1D005F58065A84219D005F58065FC
:1010E800A84217D005F58065A84215D005F580659A
:1010F800A84213D005F58065A84211D005F5806592
:10110800A8420FD005F58065A842A3D00825A4E71A
:101118000125A2E70225A0E703259EE704259CE711
:1011280005259AE7062598E70C4D0CF1020255F8BB
:10113800224024EA070745F822700A4C2568F24342
:1011480015402560656815406560A5681540A5606F
:10115800E5682A40E26084E7F0BD70470038014046
:1011680000000240003C014012B909048161704747
:1011780081617047002800F0BB8170B582B00446D9
:10118800036813F0010F3BD0A74B9B6803F00C03D7
:10119800042B2CD0A44B9B6803F00C03082B21D004
:1011A8006368B3F5803F4FD0B3F5A02F52D09E4B64
:1011B8001A6822F480321A601A6822F480221A60AF
:1011C8006368002B50D0FFF7E3FD0546964B1B687C
:1011D80013F4003F14D1FFF7DBFD401B6428F5D959
:1011E80003208AE1904B5B6813F4800FD8D08E4BB4
:1011F8001B6813F4003F03D06368002B00F07A816A
:10120800236813F0020F55D0874B9B6813F00C0F1F
:101218003ED0854B9B6803F00C03082B33D0E36862
:10122800002B68D0814B01221A60FFF7B1FD0546FB
:101238007D4B1B6813F0020F54D1FFF7A9FD401B2B
:101248000228F5D9032058E1774A136843F480331C
:101258001360B5E7744B1A6842F480221A601A6862
:1012680042F480321A60ABE7FFF792FD05466E4BF9
:101278001B6813F4003FC3D0FFF78AFD401B6428A6
:10128800F5D9032039E1684B5B6813F4800FC6D1A8
:10129800654B1B6813F0020F04D0E368012B01D0E3
:1012A80001202AE1604A136823F0F803216943EA20
:1012B800C1031360236813F0080F40D0636963B358
:1012C8005B4B01221A60FFF763FD0546564B5B6FC7
:1012D80013F0020F33D1FFF75BFD401B0228F5D94D
:1012E80003200AE1504A136823F0F803216943EA0E
:1012F800C1031360DEE74D4B00221A60FFF748FD7B
:101308000546494B1B6813F0020FD3D0FFF740FD89
:10131800401B0228F5D90320EFE0454B00221A6054
:10132800FFF736FD0546404B5B6F13F0020F06D002
:10133800FFF72EFD401B0228F5D90320DDE02368C6
:1013480013F0040F79D0384B1B6C13F0805F33D146
:1013580000230193344B1A6C42F080521A641B6CC0
:1013680003F080530193019B0125324B1B6813F452
:10137800807F23D0A368012B34D0052B38D02A4B8B
:101388001A6F22F001021A671A6F22F004021A6714
:10139800A368002B36D0FFF7FBFC0646224B1B6FD9
:1013A80013F0020F48D1FFF7F3FC801B41F288339A
:1013B8009842F3D90320A0E00025D6E71D4A136818
:1013C80043F480731360FFF7E3FC0646194B1B6870
:1013D80013F4807FCED1FFF7DBFC801B0228F5D900
:1013E80003208AE0104A136F43F001031367CFE725
:1013F8000D4B1A6F42F004021A671A6F42F001028D
:101408001A67C5E7FFF7C4FC0646074B1B6F13F0C6
:10141800020F11D0FFF7BCFC801B41F288339842C1
:10142800F3D9032069E000BF0038024000004742BA
:10143800800E474200700040E5B9A369002B5BD0DD
:10144800304A926802F00C02082A58D0022B17D0B2
:101458002D4B00221A60FFF79BFC0446294B1B68A2
:1014680013F0007F42D0FFF793FC001B0228F5D948
:10147800032042E0234A136C23F080531364DCE713
:10148800214B00221A60FFF783FC05461D4B1B68A1
:1014980013F0007F06D0FFF77BFC401B0228F5D92C
:1014A80003202AE0E369226A1343626A43EA82134B
:1014B800A26A5208013A43EA0243E26A43EA026333
:1014C800104A5360104B01221A60FFF761FC044672
:1014D8000C4B1B6813F0007F06D1FFF759FC001B6B
:1014E8000228F5D9032008E0002006E0002004E0E7
:1014F80001207047012000E0002002B070BD0120EB
:10150800FBE700BF0038024060004742324B9B684F
:1015180003F00C03042B5CD0082B01D02F48704734
:101528002DE9F04B2C4B5A6802F03F025B6813F42C
:10153800800F2BD0284B5B68C3F388131E46002707
:101548005C010025E41A65EB0705A90141EA9461ED
:10155800A001001B61EB0501CB0043EA5073C400F6
:10156800A01943EB07014B0243EAD053440220463B
:1015780019460023FFF742FA174B5B68C3F3014390
:1015880001335B00B0FBF3F0BDE8F08B124B5B68F6
:10159800C3F388131E4600275C010025E41A65EB97
:1015A8000705A90141EA9461A001001B61EB05014F
:1015B800CB0043EA5073C400A01943EB07018B0228
:1015C80043EA90538402204619460023FFF716FA8F
:1015D800D2E70348704700BF003802400024F400F7
:1015E80000127A00002800F09D8070B504464F4B29
:1015F8001B6803F00F038B4209D2CBB24B4A13701E
:10160800136803F00F038B4201D0012070BD2368DB
:1016180013F0020F17D013F0040F04D0444A936854
:1016280043F4E0539360236813F0080F04D0404A52
:10163800936843F4604393603D4A936823F0F00352
:10164800A068034393600D46236813F0010F32D05E
:101658006368012B21D09A1E012A25D9344A1268C1
:1016680012F0020F60D032498A6822F00302134355
:101678008B60FFF78DFB06462D4B9B6803F00C0330
:101688006268B3EB820F16D0FFF782FB801B41F232
:1016980088339842F0D90320B8E7254A126812F433
:1016A800003FE0D10120B1E7214A126812F0007F23
:1016B800D9D10120AAE71D4B1B6803F00F03AB42E9
:1016C80009D9EAB2194B1A701B6803F00F03AB4231
:1016D80001D001209AE7236813F0040F06D0144ABA
:1016E800936823F4E053E1680B439360236813F095
:1016F800080F07D00E4A936823F46043216943EA30
:10170800C1039360FFF702FF094B9B68C3F3031300
:10171800084AD35CD840084B18600020FFF7EEFA5F
:10172800002073E70120704701206FE7003C02406A
:1017380000380240382C00080C000020014B1868C3
:10174800704700BF0C00002000283BD010B50446AD
:101758000023836290F85130002B2ED0022384F8A6
:1017680051302268136823F0400313606368A2684D
:101778001343E26813432269134362691343A2695E
:1017880002F400721343E2691343226A1343A16A05
:1017980022680B431360638B03F00403616A2268B9
:1017A8000B4353602268D36923F40063D36100209C
:1017B8006065012384F8513010BD80F8503000F086
:1017C800B3FCCBE70120704790B110B50446022363
:1017D80080F851300268136823F04003136000F06A
:1017E800CBFC0020606584F8510084F8500010BDDF
:1017F80001207047002070470368D960704703686C
:10180800D868C0B27047000010B5184B4FF480522A
:101818001A60174B1B689B6813F0020F09D1134A13
:1018280013685C1E1460002BF3D1FFF7E3FFC0B20E
:1018380010BD01460E48FFF7DFFF0C4B4FF48052F6
:101848001A600B4B1B689B6813F0010F09D1074AFC
:101858001368591E1160002BF3D1FFF7CBFFC0B2FC
:10186800E6E70348FFF7CBFFE2E700BF08000020E8
:10187800AC00002070B505460E461446012A01D971
:1018880041F04006002208210A48FFF76DFC304667
:10189800FFF7BAFF05E015F8010BFFF7B5FF013CAC
:1018A800A4B2002CF7D1012208210248FFF75CFC02
:1018B80070BD00BF0010024070B582B0064600251A
:1018C8008DF807500095254B5A6C42F480525A64A3
:1018D8005B6C03F480530093009B214C2046FFF778
:1018E80073FF204B23600823E361A56065612561D0
:1018F800A5620723E362E56025624FF40073A361E4
:1019080065624FF4827363602046FFF71DFF00BBDA
:10191800134B1A68136843F0400313603278B178A8
:1019280073780A43134302AC04F8013D01222021D5
:101938002046FFF79FFFF278317973790A43134302
:101948008DF80730012224212046FFF793FF02B0CB
:1019580070BD054800F00CFDDAE700BF0038024012
:10196800AC00002000300140502C000870B505463E
:101978001446012A0AD941F0C006002208210C4861
:10198800FFF7F2FB3046FFF73FFF09E041F0800622
:10199800F3E70020FFF738FF05F8010B013CA4B27C
:1019A800002CF6D1012208210148FFF7DDFB70BDAC
:1019B8000010024030B583B0054602AC002304F89D
:1019C800013D012223212046FFF7D0FF2A786978BC
:1019D800AB780A4313438DF80730012223212046B0
:1019E800FFF748FF03B030BD30B585B0044601228B
:1019F80010210DF10600FFF7B9FF012211210DF1A9
:101A08000500FFF7B3FF0122122101A8FFF7AEFF7F
:101A1800012224210DF10700FFF7A8FF0122282148
:101A280002A8FFF7A3FF012229210DF10900FFF702
:101A38009DFF01222A210DF10A00FFF797FF0122DD
:101A48002B210DF10B00FFF791FF01222C2103A898
:101A5800FFF78CFF01222D210DF10D00FFF786FF06
:101A68009DF80730C3F3C2038DF80730042B25D83F
:101A7800DFE803F0264A6E92B60004AB2B4413F855
:101A8800083C6A1C04A90A4412F8080C000200B2B7
:101A9800184307EE900AF8EEE77A17EE900AFEF779
:101AA800F3FC51A3D3E90023FEF746FDFEF756FFEA
:101AB80044F8040B0235EDB2052DDED905B030BD72
:101AC8000025F9E704AB2B4413F8083C6A1C04A969
:101AD8000A4412F8080C000200B2184307EE900AF4
:101AE800F8EEE77A17EE900AFEF7CEFC40A3D3E9AA
:101AF8000023FEF721FDFEF731FF44F8040B023501
:101B0800EDB2052DDED9D9E70025FAE704AB2B4461
:101B180013F8083C6A1C04A90A4412F8080C0002CD
:101B280000B2184307EE900AF8EEE77A17EE900A2B
:101B3800FEF7AAFC30A3D3E90023FEF7FDFCFEF76D
:101B48000DFF44F8040B0235EDB2052DDED9B5E7DB
:101B58000025FAE704AB2B4413F8083C6A1C04A9D7
:101B68000A4412F8080C000200B2184307EE900A63
:101B7800F8EEE77A17EE900AFEF786FC20A3D3E981
:101B88000023FEF7D9FCFEF7E9FE44F8040B023502
:101B9800EDB2052DDED991E70025FAE704AB2B4419
:101BA80013F8083C6A1C04A90A4412F8080C00023D
:101BB80000B2184307EE900AF8EEE77A17EE900A9B
:101BC800FEF762FC10A3D3E90023FEF7B5FCFEF78D
:101BD800C5FE44F8040B0235EDB2052DDED96DE7DC
:101BE8000025FAE7AFF3008008AC1C5A643BAF3F0E
:101BF80008AC1C5A643BBF3F068195438B6CC73FBA
:101C080008AC1C5A643BCF3F08AC1C5A643BDF3F0E
:101C180010B50B48C023C37007234370002383709B
:101C28000371402404704371FFF746FE054888237A
:101C38000370447020238370FFF7BCFE10BD00BF03
:101C4800A0000020A8000020F0B58BB0002401946B
:101C5800244B1A6B42F010021A631A6B02F010023E
:101C68000192019A02941A6B42F080021A631A6B6D
:101C780002F080020292029A03941A6B42F0040264
:101C88001A631A6B02F004020392039A04941A6B03
:101C980042F001021A631B6B03F001030493049BD7
:101CA800114F224608213846FFF75EFA0F4D2246AB
:101CB80003212846FFF758FA0823059301260696BC
:101CC8000794089405A93846FFF7DAF80323059323
:101CD80006960794089405A92846FFF7D1F80BB093
:101CE800F0BD00BF0038024000100240000802406A
:101CF800FEE7000008B50E480E4B03604FF48273F0
:101D0800436000238360C360036143614FF4007242
:101D180082612022C2610362436283620A23C36232
:101D2800FFF712FD00B908BDCF210348FFF7E0FF18
:101D38001801002000300140742C000800B595B04F
:101D4800002101912A4B1A6C42F080521A641B6CD4
:101D580003F080530193019B0291264B1A6842F4C9
:101D680080421A601B6803F480430293029B01239C
:101D780008934FF48033099302220E924FF48003A4
:101D88000F9304231093A82111911292139308A87A
:101D9800FFF7F0F920BB0F230393022304930023DA
:101DA80005934FF4A05306934FF4805307930521EE
:101DB80003A8FFF717FCB8B9FFF7C0FC0E4BA3FB4D
:101DC80000308009FFF730F80420FFF743F80022BD
:101DD80011464FF0FF30FEF7F3FF15B05DF804FB36
:101DE8009F210648FFF784FFAD210448FFF780FFD5
:101DF8000038024000700040D34D6210742C000877
:101E080008B5FEF79FFFFFF799FFFFF71DFFFFF7E4
:101E180071FF00F009F9032000F0F8F8002140F6FE
:101E2800590000F0A3F8FFF7F3FE0E4C2046FFF729
:101E3800DBFDD4ED006ADFED0C7A86EEA77A0B4B5A
:101E480083ED007AD4ED016A86EEA77A084B83ED1C
:101E5800007AD4ED026A86EEA77A064B83ED007A03
:101E6800E3E700BF040100200000C842740100201D
:101E7800700100201401002004E000BF0133092B89
:101E8800FBDD013808B10023F9E7704708B50122E6
:101E980011460248FFF768F908BD00BF0008024074
:101EA80008B5002201210248FFF75EF908BD00BF0E
:101EB8000008024008B5FFF7F3FF0520FFF7DCFF35
:101EC800FFF7E4FF0220FFF7D7FFFFF7E9FF08BDA0
:101ED80008B5012202210248FFF746F908BD00BFF4
:101EE8000008024008B5002202210248FFF73CF929
:101EF80008BD00BF0008024008B5FFF7C7FFFFF79D
:101F0800E7FF0220FFF7B8FFFFF7ECFF08BD08B5B1
:101F1800FFF7C6FF0220FFF7AFFFFFF7E3FF02203E
:101F2800FFF7AAFFFFF7B2FF0220FFF7A5FFFFF7B1
:101F3800CFFF08BD38B5054600240BE0FFF7D2FFF8
:101F48000320FFF799FF6D08FFF7A0FF0320FFF7B5
:101F580093FF0134072C07DCFFF7A2FF15F0010FF0
:101F6800ECD0FFF7B5FFEBE738BD000010B582B045
:101F7800002206E0234B83FB0043C017C0EBA300FD
:101F88000132032A1ADC1F4C84FB0034C317C3EB4D
:101F9800A40303EB83035C00031B1B4CE35C02AC50
:101FA800144404F8043C022AE4D10029E2D063F086
:101FB8007F0302AC144404F8043CDBE7FFF79CFF02
:101FC8004020FFF7B7FFFFF775FFFFF7A0FFFFF708
:101FD80093FFC020FFF7AEFFFFF76CFF00240AE075
:101FE800C4F1030302AA134413F8040CFFF7A2FF79
:101FF800FFF760FF0134032CF2DDFFF788FF02B022
:1020080010BD00BF67666666242C000810B504463C
:10201800FFF772FFA4F17900C0B2FFF78BFFFFF75B
:1020280049FFFFF774FF10BD30B589B00022019257
:10203800164B196B41F004011963196B01F0040187
:10204800019101990292196B41F0040119631B6B0C
:1020580003F004030293029B0792012305931122C4
:1020680004920322069208AC44F8143D084D214618
:102078002846FEF705FF0223039321462846FEF76C
:10208800FFFE0820FFF7C2FF09B030BD003802404C
:102098000008024010B582B000240094214B5A6C0D
:1020A80042F480425A645A6C02F480420092009AC8
:1020B80001941A6C42F080521A641B6C03F080532E
:1020C8000193019B0320FEF769FE224621466FF02B
:1020D8000B00FEF775FE224621466FF00A00FEF758
:1020E8006FFE224621466FF00900FEF769FE224680
:1020F80021466FF00400FEF763FE224621466FF08A
:102108000300FEF75DFE224621466FF00100FEF750
:1021180057FE224621464FF0FF30FEF751FE02B02F
:1021280010BD00BF003802400268114B9A4200D02F
:10213800704700B587B00021009103F584335A6CCD
:1021480042F480525A645B6C03F480530093009B02
:10215800E0230193022302930391032304930523AD
:10216800059301A90348FEF78BFE07B05DF804FB51
:10217800003001400000024008B50268064B9A4250
:1021880000D008BD054A536C23F480535364E02102
:102198000348FEF759FFF4E70030014000380240D9
:1021A800000002407047FEE7FEE7FEE7FEE77047E3
:1021B8007047704708B5FEF7DFFDFEF75CFE08BD07
:1021C8000F49D1F8883043F47003C1F888300D4BBB
:1021D8001A6842F001021A60002098601A6822F01A
:1021E800847222F480321A60074A5A601A6822F40C
:1021F80080221A60D8604FF000638B60704700BF80
:1022080000ED00E00038024010300024DFF834D040
:10221800002103E00C4B5B58435004310B480C4B36
:1022280042189A42F6D30B4A02E0002342F8043BD4
:10223800094B9A42F9D3FFF7C3FF00F011F8FFF7F3
:10224800DFFD704700000220F82C00080000002085
:1022580074000020740000207C010020FEE70000CC
:1022680070B50D4E0D4CA41BA4100025A54209D134
:102278000B4E0C4C00F0C6FCA41BA4100025A54274
:1022880005D170BD56F8253098470135EEE756F868
:10229800253098470135F2E7F02C0008F02C0008AB
:1022A800F02C0008F42C000802440346934200D1A5
:1022B800704703F8011BF9E770B50E46054618B1DB
:1022C80083690BB900F00CFAAB69AC6813B92846FE
:1022D80000F006FA234B9C4217D16C68A3891B07B0
:1022E8001DD52369DBB1013EA36816F8011F013B28
:1022F800A360E9B9002B2EDA22460A21284600F00D
:102308003FF8013011D00A2011E0174B9C4201D14F
:10231800AC68E3E7154B9C4208BFEC68DEE7214652
:10232800284600F07FF80028DDD04FF0FF3070BD60
:10233800002B04DAA2699A4206DC0A2904D0236831
:102348005A1C22601970CFE72246284600F018F878
:102358000130C9D1E9E723680A205A1C22601870A5
:10236800E5E700BFA82C0008C82C0008882C000846
:10237800024B01461868FFF79FBF00BF10000020FE
:10238800F8B50E461446054618B183690BB900F036
:10239800A7F9214B9C422AD16C68A369A360A38941
:1023A8001A072ED5236963B323692068C01A6369A5
:1023B800F6B28342374604DC2146284600F026F967
:1023C80028BBA368013BA36023685A1C22601E70C7
:1023D80063690130834204D0A389DB0719D50A2E2B
:1023E80017D12146284600F011F990B10FE00B4BA8
:1023F8009C4201D1AC68D0E7094B9C4208BFEC680D
:10240800CBE72146284600F00DF80028CCD04FF045
:10241800FF373846F8BD00BFA82C0008C82C0008B4
:10242800882C0008324B70B51D6806460C4625B14D
:10243800AB6913B9284600F053F92E4B9C420FD1D3
:102448006C68B4F90C309AB215072CD4D00611D4A4
:102458000922326043F04003A3814FF0FF303EE091
:10246800254B9C4201D1AC68EBE7244B9C4208BF4A
:10247800EC68E6E7510712D5616B41B104F14403FA
:10248800994202D0304600F019FA00236363A38909
:1024980023F02403A3810023636023692360A389B5
:1024A80043F00803A38123694BB9A38903F420737C
:1024B800B3F5007F03D02146304600F0BFF9A2896A
:1024C80012F001030CD00023A36063695B42A3618F
:1024D800236953B9B4F90C3013F08000BAD170BD38
:1024E800920758BF6369A360F2E70020F7E700BFCF
:1024F80010000020A82C0008C82C0008882C000810
:102508008A892DE9F041054610070C4658D44B68D6
:10251800002B05DC0B6C002B02DC0020BDE8F081F1
:10252800E66A002EF9D0002312F480522F68216A3F
:102538002B6032D0606DA3895A0705D56368C01A2D
:10254800636B0BB1236CC01A00230246E66A216A4A
:102558002846B047431CA38906D129681D2948D8B5
:10256800294ACA40D60744D500226260D9042269A4
:10257800226004D5421C01D12B6803B96065616BE8
:102588002F600029C9D004F14403994202D028469B
:1025980000F094F900206063C0E701232846B047A3
:1025A800411CC8D12B68002BC5D01D2B01D0162B80
:1025B80001D12F60B1E7A38943F04003A381ADE7C0
:1025C8000F69002FA9D093070E6808BF4B690F60E9
:1025D80018BF0023A6EB07088B60B8F1000F9CDD3D
:1025E80043463A46216AA66A2846B047002806DCD0
:1025F800A38943F04003A3814FF0FF308EE70744DF
:10260800A8EB0008E9E700BF0100402038B50B69D6
:1026180005460C46DBB118B183690BB900F060F8C8
:102628000C4B9C4209D16C68B4F90C307BB1214643
:102638002846BDE83840FFF763BF074B9C4201D1ED
:10264800AC68F1E7054B9C4208BFEC68ECE700205A
:1026580038BD00BFA82C0008C82C0008882C00082A
:10266800002310B50446C0E90033836081814366C6
:10267800C281C0E904338361194608225C30FFF740
:1026880013FE054B6362054BA362054BE362054BE2
:102698002462236310BD00BF352A0008572A0008AA
:1026A8008F2A0008B32A0008014900F085B800BF46
:1026B8001526000870B54A1E682555430E4605F1D3
:1026C800740100F049F9044640B10021C0E9001640
:1026D8000C30A06005F16802FFF7E6FD204670BDEA
:1026E800836910B5044633BBC0E912330365124B46
:1026F800124A1B688262984204BF0123836100F07A
:102708001FF86060204600F01BF8A060204600F02B
:1027180017F80022E06004216068FFF7A1FF01229A
:102728000921A068FFF79CFF02221221E068FFF749
:1027380097FF0123A36110BD842C0008B12600086F
:10274800F8B51B4B1E68B369074613B93046FFF747
:10275800C7FF4836D6E90134013B03D5336833B1A6
:102768003668F7E7B4F90C506DB16834F4E7042122
:102778003846FFF79FFF30600028F1D10C233B60FB
:1027880004462046F8BD0B4B6566C4E90055A560B4
:10279800C4E90335C4E905550822294604F15C005B
:1027A800FFF782FDC4E90D55C4E91255E9E700BFFA
:1027B800842C00080100FFFF2DE9F8438046894674
:1027C80000F14804002614B93046BDE8F883D4E97E
:1027D8000175013F01D52468F5E7AB89012B07D9BD
:1027E800B5F90E30013303D029464046C8470643A1
:1027F8006835EEE770B50E46B1F90E10002996B0AF
:1028080014461D4607DA00232B60B3891A0610D434
:102818004FF480630EE06A4600F06EF90028F2DBA0
:10282800019A02F47042A2F500535A425A412A60B2
:10283800EEE740230020236016B070BD8B8973B586
:102848009D0706460C4607D504F14703236023611C
:102858000123636102B070BD01AB6A46FFF7CAFF8E
:1028680000990546304600F077F848B9B4F90C30BD
:102878009A05EFD423F0030343F00203A381E3E7AF
:102888000D4BB362A389206043F08003A381009BB2
:102898006361019B20615BB1B4F90E10304600F012
:1028A8003DF928B1A38923F0030343F00103A38171
:1028B800A3891D43A581CDE7B126000838B5054693
:1028C800002945D051F8043C0C1F002BB8BFE41870
:1028D80000F046F91F4A1368104633B96360146064
:1028E8002846BDE8384000F03CB9A3420CD921681D
:1028F8006218934204BF1A685B68636004BF521889
:1029080022600460ECE713465A680AB1A242FAD979
:1029180019685818A0420BD12068014458188242FF
:102928001960DDD1106852685A6001441960D7E710
:1029380002D90C232B60D3E7206821188A4204BFF0
:1029480011685268626004BF091821605C60C7E7BB
:1029580038BD00BF9000002070B5CD1C25F00305E0
:1029680008350C2D38BF0C25002D064601DBA94281
:1029780003D90C233360002070BD00F0F1F8214A20
:102988001468214691B9204C23681BB9304600F0E1
:102998003DF820602946304600F038F8431C24D121
:1029A8000C233360304600F0DCF8E4E70B685B1B6F
:1029B80018D40B2B0FD90B60CD50CC18304600F033
:1029C800D0F804F10B00231D20F00700C31AD3D060
:1029D8005A42E250D0E78C424B6816BF63601360DE
:1029E8000C46EBE70C464968CCE7C41C24F003040A
:1029F800A04205D0211A304600F008F80130CFD0A7
:102A08002560DBE7900000209400002038B5064CD4
:102A1800002305460846236000F0DEF8431C02D177
:102A2800236803B12B6038BD7801002010B50C462F
:102A3800B1F90E1000F096F80028ABBF636DA389BA
:102A48001B1823F48053ACBF6365A38110BD2DE927
:102A5800F0411F468B89DB0505460C46164605D511
:102A680002230022B1F90E1000F068F8A389B4F926
:102A78000E1023F48053A38132463B462846BDE816
:102A8800F04100F017B810B50C46B1F90E1000F07F
:102A980055F8431CA38915BF606523F4805343F49C
:102AA8008053A38118BFA38110BDB1F90E1000F0A7
:102AB80013B8000038B5074C0546084611460022F1
:102AC80022601A4600F096F8431C02D1236803B12D
:102AD8002B6038BD7801002038B5064C0023054628
:102AE8000846236000F050F8431C02D1236803B164
:102AF8002B6038BD7801002038B5074C0023054607
:102B080008461146236000F047F8431C02D12368A9
:102B180003B12B6038BD00BF7801002038B5064CE2
:102B2800002305460846236000F03EF8431C02D106
:102B3800236803B12B6038BD7801002038B5074CF5
:102B4800054608461146002222601A4600F034F86D
:102B5800431C02D1236803B12B6038BD78010020E3
:102B68007047704738B5074C05460846114600229D
:102B780022601A4600F028F8431C02D1236803B1EA
:102B88002B6038BD78010020024B58221A604FF0A4
:102B9800FF30704778010020024B58221A604FF02E
:102BA800FF30704778010020024B58221A6000203D
:102BB800704700BF78010020024B58221A604FF07E
:102BC800FF30704778010020024B58221A604FF0FE
:102BD800FF30704778010020044A05491368002B2C
:102BE80008BF0B461844106018467047980000202C
:102BF80080010020024B58221A604FF0FF307047C6
:102C080078010020F8B500BFF8BC08BC9E467047A4
:0C2C1800F8B500BFF8BC08BC9E46704731
:102C24003F065B4F666D7D077F6F777C395E7971F8
:102C34000000000000000000000000000102030486
:102C44000607080900000000010203044552524F20
:102C5400523A204572726F7220696E20696E6974EF
:102C640069616C6973696E672053504931200000B3
:102C74002E2E2F5372632F6D61696E2E6300000038
:102C8400140000200000000000000000000000000C
:102C94000000000000000000000000000000000030
:102CA4000000000000000000000000000000000020
:102CB4000000000000000000000000000000000010
:102CC4000000000000000000000000000000000000
:102CD40000000000000000000000000000000000F0
:042CE40000000000EC
:082CE8004CDDFF7F010000003C
:042CF000AD0100082A
:042CF400890100084A
:102CF8000100000010000000001000000024F40093
:102D08001400002000000000A82C0008C82C0008AF
:102D1800882C0008000000000000000000000000EF
:102D2800000000000000000000000000000000009B
:102D3800000000000000000000000000000000008B
:102D4800000000000000000000000000000000007B
:102D5800000000000000000000000000000000006B
:042D68000000000067
:0400000508002215B8
:00000001FF
